:020000040000FA
:100000000C9461000C947E000C947E000C947E0095
:100010000C947E000C947E000C947E000C947E0068
:100020000C947E000C947E000C947E000C947E0058
:100030000C947E000C947E000C947E000C947E0048
:100040000C94F4010C947E000C947E000C947E00C1
:100050000C947E000C947E000C947E000C947E0028
:100060000C947E000C947E00000000002500280007
:100070002B0000000000240027002A0000000000E0
:1000800023002600290004040404040404040202DA
:100090000202020203030303030301020408102007
:1000A0004080010204081020010204081020000012
:1000B0000008000201000003040700000000000027
:1000C000000011241FBECFEFD8E0DEBFCDBF11E08E
:1000D000A0E0B1E0E2E8F7E002C005900D92A432A2
:1000E000B107D9F721E0A4E2B1E001C01D92A73326
:1000F000B207E1F70E943E020C94BF030C9400008B
:10010000833081F028F4813099F08230A9F008958D
:100110008730A9F08830C9F08430B1F48091800034
:100120008F7D03C0809180008F7780938000089539
:1001300084B58F7784BD089584B58F7DFBCF809182
:10014000B0008F778093B00008958091B0008F7DCC
:10015000F9CFCF93DF93282F30E0F901E255FF4F1D
:100160008491F901E656FF4FD491F901EA57FF4F08
:10017000C491CC23A1F081110E948000EC2FF0E00B
:10018000EE0FFF1FE458FF4FA591B491EC91ED23C2
:1001900081E090E009F480E0DF91CF91089580E064
:1001A00090E0FACFCF93DF9390E0FC01E656FF4F4B
:1001B00024918A579F4FFC0184918823D1F090E0CD
:1001C000880F991FFC01EE58FF4FA591B491FC01D7
:1001D000E859FF4FC591D491623071F49FB7F894FC
:1001E0003C91822F809583238C93E8812E2B28834A
:1001F0009FBFDF91CF9108958FB7F894EC912E2B8C
:100200002C938FBFF6CF3FB7F89480913301909134
:100210003401A0913501B091360126B5A89B05C0E7
:100220002F3F19F00196A11DB11D3FBFBA2FA92F75
:10023000982F8827BC01CD01620F711D811D911D72
:1002400042E0660F771F881F991F4A95D1F70895DE
:100250008F929F92AF92BF92CF92DF92EF92FF92D6
:100260000E9403014B015C0182E3C82ED12CE12CDA
:10027000F12C0E940301681979098A099B09683EDB
:10028000734081059105A8F321E0C21AD108E10865
:10029000F10888EE880E83E0981EA11CB11CC114E1
:1002A000D104E104F10429F7FF90EF90DF90CF90A3
:1002B000BF90AF909F908F900895CF92DF92EF9272
:1002C000FF920F931F93CF93DF93E82ED92EEB016C
:1002D0008B01085F1F4F299139913327F901E255AE
:1002E000FF4F8491F901E656FF4FF490F901EA5768
:1002F000FF4FC490CC20A1F081110E948000EC2D12
:10030000F0E0EE0FFF1FE859FF4FA591B4918FB7B2
:10031000F894EC91E0FC19C0F094FE22FC928FBF9F
:100320008E2D9D2D97FD019695958795E82ED92EBA
:100330000C171D0709F0CFCFDF91CF911F910F91BF
:10034000FF90EF90DF90CF900895FE2AE7CFEF92D5
:10035000FF920F931F93CF93DF93CCE1D1E024E181
:1003600031E0672B21F0CCE0D1E024E031E00AE07D
:1003700010E0B8010E9497037B01B9010E945D0162
:10038000C701B8010E949703BE01DF91CF911F9171
:100390000F91FF90EF900C945D018D33910514F453
:1003A0000C94A70108959091240129E130E099234C
:1003B00011F025E030E030932801209327011092BE
:1003C00026011092250181E09827909324018093C3
:1003D0002D0170E060E0C9010E94CD0161E070E094
:1003E00090E080E00C94CD011F920F920FB60F9217
:1003F00011242F933F938F939F93AF93BF9380913B
:100400002F0190913001A0913101B09132013091D2
:100410002E0123E0230F2D3758F50196A11DB11DA4
:1004200020932E0180932F0190933001A0933101EE
:10043000B09332018091330190913401A091350144
:10044000B09136010196A11DB11D809333019093A7
:100450003401A0933501B0933601BF91AF919F91C4
:100460008F913F912F910F900FBE0F901F90189575
:1004700026E8230F0296A11DB11DD2CF789484B532
:10048000826084BD84B5816084BD85B5826085BD90
:1004900085B5816085BD80916E00816080936E001E
:1004A0001092810080918100826080938100809110
:1004B00081008160809381008091800081608093C1
:1004C00080008091B10084608093B1008091B00081
:1004D00081608093B00080917A00846080937A007C
:1004E00080917A00826080937A0080917A008160A6
:1004F00080937A0080917A00806880937A001092CD
:10050000C10061E080E00E94D20061E081E00E94D1
:10051000D20061E082E00E94D20061E083E00E94AC
:10052000D20061E084E00E94D20061E085E00E9498
:10053000D20061E086E00E94D20061E087E00E9484
:10054000D20061E088E00E94D20061E089E00E9470
:10055000D20061E08AE00E94D20061E08BE00E945C
:10056000D20061E08CE00E94D20061E08DE00E9448
:10057000D20061E08EE00E94D20061E08FE00E9434
:10058000D20062E080E10E94D20062E081E10E943C
:10059000D20089E190E0909328018093270181E0C7
:1005A0008093240180932D0170E060E089E190E068
:1005B0000E94A70161E070E08091250190912601E1
:1005C0000E94CD01FF24F394C0E0D0E00BE310E0E3
:1005D00081E10E94A900209102013091030182175C
:1005E000930771F00E94280181E10E94A9006C012B
:1005F000892B11F40E94D301D0920301C092020111
:1006000080E10E94A9002091000130910101821730
:10061000930719F1E0902D010E94280180E10E94CA
:10062000A9000097B1F4EF24E0922D012FB7F894C0
:1006300040912F0150913001609131017091320150
:100640002FBF4093290150932A0160932B0170938F
:100650002C01909301018093000180912D01811163
:100660003EC02FB7F89480912F0190913001A09156
:100670003101B09132012FBF4091290150912A01DF
:1006800060912B0170912C01841B950BA60BB70B6D
:10069000883E9340A105B10510F12FB7F8948091E1
:1006A0002F0190913001A0913101B09132012FBF03
:1006B0008093290190932A01A0932B01B0932C01E0
:1006C00020912701309128018091250190912601E8
:1006D0002115310551F4009741F40E94D301209770
:1006E00009F476CF0E94000073CF01979093260102
:1006F0008093250197FF0AC02150310930932801CA
:1007000020932701109326010093250170E060E0FB
:1007100080912701909128010E94CD0161E070E055
:1007200080912501909126010E94CD01D8CF97FBA1
:10073000072E16F4009407D077FD09D00E94AB0372
:1007400007FC05D03EF4909581959F4F08957095D4
:1007500061957F4F0895AA1BBB1B51E107C0AA1FDB
:10076000BB1FA617B70710F0A61BB70B881F991F52
:100770005A95A9F780959095BC01CD010895F894FC
:10078000FFCF010001000C000D000E000F0008005B
:1007900009000A000B000400050006000700000025
:0607A0000100020003004D
:107E0000112484B714BE81FFF0D085E080938100F7
:107E100082E08093C00088E18093C10086E0809377
:107E2000C20080E18093C4008EE0C9D0259A86E02C
:107E300020E33CEF91E0309385002093840096BBD3
:107E4000B09BFECF1D9AA8958150A9F7CC24DD24C4
:107E500088248394B5E0AB2EA1E19A2EF3E0BF2EE7
:107E6000A2D0813461F49FD0082FAFD0023811F036
:107E7000013811F484E001C083E08DD089C08234E0
:107E800011F484E103C0853419F485E0A6D080C0E4
:107E9000853579F488D0E82EFF2485D0082F10E0AE
:107EA000102F00270E291F29000F111F8ED06801E7
:107EB0006FC0863521F484E090D080E0DECF843638
:107EC00009F040C070D06FD0082F6DD080E0C81688
:107ED00080E7D80618F4F601B7BEE895C0E0D1E017
:107EE00062D089930C17E1F7F0E0CF16F0E7DF06D8
:107EF00018F0F601B7BEE89568D007B600FCFDCFD4
:107F0000A601A0E0B1E02C9130E011968C91119780
:107F100090E0982F8827822B932B1296FA010C0160
:107F200087BEE89511244E5F5F4FF1E0A038BF0790
:107F300051F7F601A7BEE89507B600FCFDCF97BE46
:107F4000E89526C08437B1F42ED02DD0F82E2BD052
:107F50003CD0F601EF2C8F010F5F1F4F84911BD097
:107F6000EA94F801C1F70894C11CD11CFA94CF0C13
:107F7000D11C0EC0853739F428D08EE10CD085E9AC
:107F80000AD08FE07ACF813511F488E018D01DD067
:107F900080E101D065CF982F8091C00085FFFCCF94
:107FA0009093C60008958091C00087FFFCCF809118
:107FB000C00084FD01C0A8958091C6000895E0E648
:107FC000F0E098E1908380830895EDDF803219F02E
:107FD00088E0F5DFFFCF84E1DECF1F93182FE3DFCA
:107FE0001150E9F7F2DF1F91089580E0E8DFEE27F6
:047FF000FF270994CA
:027FFE00040479
:00000001FF
