:020000040000FA
:100000000C9463000C948B000C948B000C948B006C
:100010000C948B000C948B000C948B000C948B0034
:100020000C948B000C948B000C948B000C948B0024
:100030000C948B000C948B000C948B000C948B0014
:100040000C94F7030C948B000C948B000C948B0095
:100050000C948B000C948B000C948B000C948B00F4
:100060000C948B000C948B000000000024002700EF
:100070002A0000000000250028002B0000000000DE
:1000800023002600290004040404040404040202DA
:100090000202020203030303030301020408102007
:1000A0004080010204081020010204081020000012
:1000B0000008000201000003040700000000000027
:1000C00000000706240611241FBECFEFD8E0DEBFD4
:1000D000CDBF11E0A0E0B1E0E8E9F1E102C0059098
:1000E0000D92AA37B107D9F721E0AAE7B1E001C024
:1000F0001D92A83CB207E1F710E0C2E6D0E004C0D0
:100100002197FE010E94C706C136D107C9F70E9498
:100110008A040C94BF080C940000833081F028F40A
:10012000813099F08230A9F008958730A9F08830A5
:10013000C9F08430B1F4809180008F7D03C080913C
:1001400080008F7780938000089584B58F7784BD79
:10015000089584B58F7DFBCF8091B0008F77809319
:10016000B00008958091B0008F7DF9CFCF93DF93D9
:10017000282F30E0F901E255FF4F8491F901E6564E
:10018000FF4FD491F901EA57FF4FC491CC23A1F05E
:1001900081110E948D00EC2FF0E0EE0FFF1FE4585C
:1001A000FF4FA591B491EC91ED2381E090E009F42B
:1001B00080E0DF91CF91089580E090E0FACF1F9327
:1001C000CF93DF93282F30E0F901E255FF4F849160
:1001D000F901E656FF4FD491F901EA57FF4FC49158
:1001E000CC23A9F0162F81110E948D00EC2FF0E096
:1001F000EE0FFF1FEE58FF4FA591B4918FB7F89403
:10020000EC91111108C0D095DE23DC938FBFDF91F4
:10021000CF911F910895DE2BF8CFCF93DF93C82F96
:10022000D0E08091B101D81758F4ED2FF0E0E756F7
:10023000FE4F60919C0187850E94DF00DF5FF1CF58
:10024000EC2FF0E0E756FE4F60919A018781DF9135
:10025000CF910C94DF001F93CF93DF93C82FD0E092
:10026000C756DE4F609199018F810E94DF0010E038
:100270006A968091B1011817A8F4E12FF0E0888107
:1002800090E0012E02C0959587950A94E2F780FFD1
:1002900007C0E756FE4F60919B0187850E94DF00F3
:1002A0001F5FE7CFDF91CF911F910895CF93DF9329
:1002B000C82FD0E08091B001D81758F4ED2FF0E0AE
:1002C000E756FE4F60919A0187810E94DF00DF5F51
:1002D000F1CFEC2FF0E0E756FE4F60919C0187854F
:1002E000DF91CF910C94DF000F931F93CF93C82F12
:1002F000E82FF0E0E756FE4F60919B0187850E9452
:10030000DF0001E010E002C0000F111FCA95E2F704
:10031000C0E08091B001C81788F4EC2FF0E0E756F8
:10032000FE4F828D90E080239123892B29F06091EC
:10033000990187810E94DF00CF5FEBCFCF911F91A2
:100340000F910895CF93DF9390E0FC01E656FF4FA5
:1003500024918A579F4FFC0184918823D1F090E02B
:10036000880F991FFC01E859FF4FA591B491FC013A
:10037000EE58FF4FC591D491623071F49FB7F89455
:100380003C91822F809583238C93E8812E2B2883A8
:100390009FBFDF91CF9108958FB7F894EC912E2BEA
:1003A0002C938FBFF6CF8230910538F0880F991FBC
:1003B000880F991F05970197F1F708953FB7F894B3
:1003C0008091950190919601A0919701B09198012B
:1003D00026B5A89B05C02F3F19F00196A11DB11DA0
:1003E0003FBFBA2FA92F982F8827BC01CD01620FDC
:1003F000711D811D911D42E0660F771F881F991F97
:100400004A95D1F70895CF92DF92EF92FF920F9322
:100410001F93CF9380919E01811183C00E94DE01C2
:100420004091C3010091BB011091BC012091BD011D
:100430003091BE016B017C01C01AD10AE20AF30AB5
:100440000091C1011091C201411104C00091BF018E
:100450001091C001012E000C220B330BC016D106E7
:10046000E206F3069CF16093BB017093BC0180939C
:10047000BD019093BE018091B20120919D01211197
:100480002DC04423C1F01092C3018091B2018F5F4F
:100490008093B2019091B101891710F01092B201CE
:1004A0008091B201CF911F910F91FF90EF90DF905B
:1004B000CF900C9474010E9456018091C1019091DB
:1004C000C201892B11F381E08093C301CF911F9169
:1004D0000F91FF90EF90DF90CF9008954423C1F0EB
:1004E0001092C3018091B2018F5F8093B20190910D
:1004F000B001891710F01092B2018091B201CF9132
:100500001F910F91FF90EF90DF90CF900C942B01F3
:100510000E940D018091C1019091C201892B11F3BC
:10052000D2CF80919D01C0E081111AC08091B101AC
:10053000C81760F68C2F0E9474018091BF019091C2
:10054000C0010E94D3018C2F0E9456018091C101ED
:100550009091C201009711F00E94D301CF5FE6CFC6
:100560008091B001C81708F0B1CF8C2F0E942B01E9
:100570008091BF019091C0010E94D3018C2F0E94F5
:100580000D018091C1019091C201009711F00E946C
:10059000D301CF5FE5CF8F929F92AF92BF92CF9260
:1005A000DF92EF92FF920E94DE014B015C0182E339
:1005B000C82ED12CE12CF12C0E94DE01681979099A
:1005C0008A099B09683E734081059105A8F321E0E3
:1005D000C21AD108E108F10888EE880E83E0981E5F
:1005E000A11CB11CC114D104E104F10429F7FF904E
:1005F000EF90DF90CF90BF90AF909F908F90089535
:100600002F923F924F925F926F927F928F929F9222
:10061000AF92BF92CF92DF92EF92FF920F931F9310
:10062000CF93DF93CDB7DEB72A970FB6F894DEBF2E
:100630000FBECDBF24E6289F6001299FD00C112456
:10064000C60ED71E0D2C000CEE08FF086090B001FE
:10065000062D10E0C801880F991F880F991FFC0113
:10066000ED5CFE4F40815181628173819E012F5F5D
:100670003F4F4901C416D506E606F706C4F0F4015B
:1006800085E29E2F9819961508F462C083EB91E0DD
:10069000D4012A2F2819261508F074C0ED91F0E036
:1006A000E65FFE4F2081FC012193CF01F2CF815DF7
:1006B0009E4FFC01408151816281738181E090E015
:1006C000A0E0B0E0841B950BA60BB70BC816D906AB
:1006D000EA06FB06A4F2712CF7FE0CC085E28983C2
:1006E000F094E094D094C094C11CD11CE11CF11C86
:1006F00077247394A72CB12C9801215031093A87A3
:1007000029870A191B09000F111F000F111F0D5C0B
:100710001E4FA80CB91C7614E8F4F80152904290D0
:10072000329022908F01C701B601A20191010E946F
:100730003506F50121935F01A22FB0E0A2019101DE
:100740000E945406C61AD70AE80AF90A7394E3CF3E
:10075000819397CF80919F01811198CF24E2E82F58
:10076000F0E049855A85E417F5070CF08FCFE80DC6
:10077000F91D9081911103C020838F5FF0CF9A30D3
:10078000E0F784CF2A960FB6F894DEBF0FBECDBF38
:10079000DF91CF911F910F91FF90EF90DF90CF905D
:1007A000BF90AF909F908F907F906F905F904F9091
:1007B0003F902F900C9403029091860129E130E044
:1007C000992311F025E030E030938A0120938901CC
:1007D000109288011092870181E0982790938601FA
:1007E00080938F0170E060E0C9010C9400031F92B8
:1007F0000F920FB60F9211242F933F938F939F93D5
:10080000AF93BF938091910190919201A091930138
:10081000B09194013091900123E0230F2D3758F5CA
:100820000196A11DB11D2093900180939101909399
:100830009201A0939301B0939401809195019091BE
:100840009601A0919701B09198010196A11DB11D4B
:100850008093950190939601A0939701B09398018E
:10086000BF91AF919F918F913F912F910F900FBEAC
:100870000F901F90189526E8230F0296A11DB11D19
:10088000D2CFEF92FF920F931F93CF93DF93EC01A0
:100890007B01198218821B821A821D821C82FB0135
:1008A00001900020E9F731978F01061B170BB80163
:1008B0006F5F7F4F90E080E00E94F2070097B9F0F1
:1008C000998388831B830A832C813D81232B11F418
:1008D000FC0110821D830C83B70188819981DF910F
:1008E000CF911F910F91FF90EF900C94B8088881E1
:1008F0009981009711F00E946907198218821D8260
:100900001C821B821A82DF91CF911F910F91FF9061
:10091000EF900895789484B5826084BD84B5816039
:1009200084BD85B5826085BD85B5816085BD8091BA
:100930006E00816080936E00109281008091810032
:10094000826080938100809181008160809381002A
:10095000809180008160809380008091B1008460EC
:100960008093B1008091B00081608093B00080914D
:100970007A00846080937A0080917A00826080930C
:100980007A0080917A00816080937A0080917A0069
:10099000806880937A001092C10062E080E00E943B
:1009A000A20162E081E00E94A20189E190E09093BF
:1009B0008A018093890181E08093860180938F0171
:1009C00010929D0180939E0110929F0194E090935C
:1009D000B00198E09093B1011092990180939B012E
:1009E00080939A0110929C01EBE5F1E0A8EAB1E056
:1009F00081918D9321E0E336F207D1F782E0809375
:100A0000A00183E08093A10184E08093A20185E0AE
:100A10008093A301C0E08091B001C81788F40C2F27
:100A200010E007561E4F61E0F80187810E94A20185
:100A300060919A01F80187810E94DF00CF5FEBCFC0
:100A4000C0E08091B101C81750F09091B001E3EB84
:100A5000F1E080E09817A1F011928F5FFBCF0C2F8F
:100A600010E007561E4F61E0F80187850E94A20141
:100A700060919C01F80187850E94DF00CF5FE1CF84
:100A800080E00E94560180E00E940D016091870184
:100A9000709188016D33710524F489E190E00E9422
:100AA0000003C0E0D0E00BE310E00E94030281E00D
:100AB0000E94B60020910201309103018217930732
:100AC00071F00E94CB0281E00E94B6007C01892B6C
:100AD00011F40E94DC03F0920301E092020180E035
:100AE0000E94B60020910001309101018217930706
:100AF00021F1F0908F010E94CB0280E00E94B600AD
:100B00000097B9F421E0F226F0928F012FB7F89404
:100B100040919101509192016091930170919401E3
:100B20002FBF40938B0150938C0160938D01709384
:100B30008E01909301018093000180918F018111BA
:100B40003EC02FB7F8948091910190919201A091AD
:100B50009301B09194012FBF40918B0150918C0172
:100B600060918D0170918E01841B950BA60BB70BC4
:100B7000883E9340A105B10510F12FB7F8948091FC
:100B8000910190919201A0919301B09194012FBF96
:100B900080938B0190938C01A0938D01B0938E0173
:100BA0002091890130918A0180918701909188017B
:100BB0002115310551F4009741F40E94DC03209780
:100BC00009F473CF0E94000070CF019790938801C1
:100BD0008093870197FF0AC02150310930938A0121
:100BE00020938901109388010093870180918901E6
:100BF00090918A018D33910514F76091870170916E
:100C000088016D337105DCF60E940003D8CFE9E955
:100C1000F1E080ED97E097A386A311A610A612A697
:100C2000178A118E12A213A214A215A21482158281
:100C300063E671E08AE791E00E9441046EE671E0AC
:100C400080E891E00C9441048091800190918101B1
:100C5000009711F00E94690780917A0190917B01C1
:100C6000009711F00C9469070895052E97FB1EF468
:100C700000940E944C0657FD07D00E94960607FC80
:100C800003D04EF40C944C06509540953095219528
:100C90003F4F4F4F5F4F08959095809570956195A8
:100CA0007F4F8F4F9F4F08950E94B806A59F900DCC
:100CB000B49F900DA49F800D911D112408952F9233
:100CC0003F924F925F926F927F928F929F92AF92DC
:100CD000BF92CF92DF92EF92FF920F931F93CF9329
:100CE000DF93CDB7DEB7CA1BDB0B0FB6F894DEBFC0
:100CF0000FBECDBF09942A88398848885F846E84E6
:100D00007D848C849B84AA84B984C884DF80EE802F
:100D1000FD800C811B81AA81B981CE0FD11D0FB638
:100D2000F894DEBF0FBECDBFED010895A1E21A2EEB
:100D3000AA1BBB1BFD010DC0AA1FBB1FEE1FFF1F7F
:100D4000A217B307E407F50720F0A21BB30BE40BCF
:100D5000F50B661F771F881F991F1A9469F7609516
:100D60007095809590959B01AC01BD01CF010895D0
:100D7000A29FB001B39FC001A39F700D811D1124DC
:100D8000911DB29F700D811D1124911D0895EE0FCC
:100D9000FF1F0590F491E02D09940F931F93CF93BB
:100DA000DF938230910510F482E090E0E091C6017B
:100DB000F091C70130E020E0B0E0A0E0309799F476
:100DC0002115310509F44AC0281B390B243031059F
:100DD000D8F58A819B816115710589F1FB019383A7
:100DE0008283FE0111C04081518102811381481725
:100DF0005907E0F04817590799F4109761F01296D7
:100E00000C93129713961C933296CF01DF91CF91DA
:100E10001F910F9108950093C6011093C701F4CF5D
:100E20002115310551F04217530738F0A901DB01B4
:100E30009A01BD01DF01F801C1CFEF01F9CF909315
:100E4000C7018093C601CDCFFE01E20FF31F81934E
:100E500091932250310939832883D7CF2091C4013F
:100E60003091C501232B41F42091060130910701F7
:100E70003093C5012093C4012091040130910501F4
:100E80002115310541F42DB73EB74091080150912D
:100E90000901241B350BE091C401F091C501E21753
:100EA000F307A0F42E1B3F0B2817390778F0AC018D
:100EB0004E5F5F4F2417350748F04E0F5F1F50936A
:100EC000C5014093C401819391939FCFF0E0E0E08E
:100ED0009CCFCF93DF930097E9F0FC013297138208
:100EE0001282A091C601B091C701ED0130E020E06F
:100EF0001097A1F420813181820F931F2091C401AA
:100F00003091C5012817390709F061C0F093C50178
:100F1000E093C401DF91CF910895EA01CE17DF0776
:100F2000E8F54A815B819E0141155105B1F7E90160
:100F3000FB83EA8349915991C40FD51FEC17FD0734
:100F400061F4808191810296840F951FE901998354
:100F50008883828193819B838A83F0E0E0E012960C
:100F60008D919C9113970097B9F52D913C91119714
:100F7000CD010296820F931F2091C4013091C501CB
:100F80002817390739F6309751F51092C70110929A
:100F9000C601B093C501A093C401BCCFD383C28363
:100FA00040815181840F951FC817D90761F44E5FA6
:100FB0005F4F88819981480F591F518340838A81EF
:100FC0009B81938382832115310509F0B0CFF09383
:100FD000C701E093C6019ECFFD01DC01C0CF1382A3
:100FE0001282D7CFB0E0A0E0E8EFF7E00C94610602
:100FF0008C01009751F4CB010E94CD068C01C801F1
:10100000CDB7DEB7E0E10C947D06FC01E60FF71FDB
:101010009C0122503109E217F30708F49DC0D90161
:10102000CD91DC911197C617D70798F0C530D1053F
:1010300030F3CE0104978617970708F3C61BD70B2A
:101040002297C193D1936D937C93CF010E9469073E
:10105000D6CF5B01AC1ABD0A4C018C0E9D1EA0912F
:10106000C601B091C701512C412CF12CE12C1097F5
:1010700031F58091C4019091C5018815990509F059
:101080005CC04616570608F058C080910401909144
:101090000501009741F48DB79EB74091080150912A
:1010A0000901841B950BE817F90708F055C0F09368
:1010B000C501E093C401F90171836083A0CF8D91D4
:1010C0009C91119712966C90129713967C9013979F
:1010D000A815B90559F56C0142E0C40ED11CCA141B
:1010E000DB0420F1AC014A195B09DA01129615976D
:1010F00080F06282738251834083D9016D937C9327
:10110000E114F10471F0D7011396FC93EE9312975A
:1011100076CF22968C0F9D1FF90191838083F30176
:10112000EFCFF093C701E093C60169CF4816590687
:1011300008F42C017D01D3019ACFCB010E94CD068A
:101140007C01009749F0AE01B8010E94AF08C801C8
:101150000E946907870153CF10E000E050CFFB01E8
:10116000DC0102C001900D9241505040D8F7089523
:10117000FB01DC0101900D920020E1F7089510E0E1
:10118000C2E6D0E004C0FE010E94C7062196C33625
:10119000D107C9F7F894FFCF010001000000C80192
:1011A00080003F065B4F666D7D077F6F777C395E01
:1011B00079713D76300E763800543F7367506D7804
:1011C0003E3E00766E5B0040806308010000000A2E
:1011D00000000064000000E803000010270000A0E9
:1011E00086010040420F008096980000E1F505005E
:1011F000CA9A3B060708090A0B0C0D466F63757304
:101200002054696D6500427265616B2054696D659B
:021210000000DC
:107E0000112484B714BE81FFF0D085E080938100F7
:107E100082E08093C00088E18093C10086E0809377
:107E2000C20080E18093C4008EE0C9D0259A86E02C
:107E300020E33CEF91E0309385002093840096BBD3
:107E4000B09BFECF1D9AA8958150A9F7CC24DD24C4
:107E500088248394B5E0AB2EA1E19A2EF3E0BF2EE7
:107E6000A2D0813461F49FD0082FAFD0023811F036
:107E7000013811F484E001C083E08DD089C08234E0
:107E800011F484E103C0853419F485E0A6D080C0E4
:107E9000853579F488D0E82EFF2485D0082F10E0AE
:107EA000102F00270E291F29000F111F8ED06801E7
:107EB0006FC0863521F484E090D080E0DECF843638
:107EC00009F040C070D06FD0082F6DD080E0C81688
:107ED00080E7D80618F4F601B7BEE895C0E0D1E017
:107EE00062D089930C17E1F7F0E0CF16F0E7DF06D8
:107EF00018F0F601B7BEE89568D007B600FCFDCFD4
:107F0000A601A0E0B1E02C9130E011968C91119780
:107F100090E0982F8827822B932B1296FA010C0160
:107F200087BEE89511244E5F5F4FF1E0A038BF0790
:107F300051F7F601A7BEE89507B600FCFDCF97BE46
:107F4000E89526C08437B1F42ED02DD0F82E2BD052
:107F50003CD0F601EF2C8F010F5F1F4F84911BD097
:107F6000EA94F801C1F70894C11CD11CFA94CF0C13
:107F7000D11C0EC0853739F428D08EE10CD085E9AC
:107F80000AD08FE07ACF813511F488E018D01DD067
:107F900080E101D065CF982F8091C00085FFFCCF94
:107FA0009093C60008958091C00087FFFCCF809118
:107FB000C00084FD01C0A8958091C6000895E0E648
:107FC000F0E098E1908380830895EDDF803219F02E
:107FD00088E0F5DFFFCF84E1DECF1F93182FE3DFCA
:107FE0001150E9F7F2DF1F91089580E0E8DFEE27F6
:047FF000FF270994CA
:027FFE00040479
:00000001FF
