:020000040000FA
:100000000C9463000C948B000C948B000C948B006C
:100010000C948B000C948B000C948B000C948B0034
:100020000C948B000C948B000C948B000C948B0024
:100030000C948B000C948B000C948B000C948B0014
:100040000C949A030C948B000C948B000C948B00F2
:100050000C948B000C948B000C948B000C948B00F4
:100060000C948B000C948B000000000024002700EF
:100070002A0000000000250028002B0000000000DE
:1000800023002600290004040404040404040202DA
:100090000202020203030303030301020408102007
:1000A0004080010204081020010204081020000012
:1000B0000008000201000003040700000000000027
:1000C00000005605800511241FBECFEFD8E0DEBF2B
:1000D000CDBF21E0A6E3B1E001C01D92A137B20778
:1000E000E1F711E0A0E0B1E0ECEDF4E102C0059031
:1000F0000D92A633B107D9F710E0C2E6D0E004C0F4
:100100002197FE010E94C805C136D107C9F70E9498
:100110002D040C94610A0C940000833081F028F4C3
:10012000813099F08230A9F008958730A9F08830A5
:10013000C9F08430B1F4809180008F7D03C080913C
:1001400080008F7780938000089584B58F7784BD79
:10015000089584B58F7DFBCF8091B0008F77809319
:10016000B00008958091B0008F7DF9CFCF93DF93D9
:10017000282F30E0F901E255FF4F8491F901E6564E
:10018000FF4FD491F901EA57FF4FC491CC23A1F05E
:1001900081110E948D00EC2FF0E0EE0FFF1FE4585C
:1001A000FF4FA591B491EC91ED2381E090E009F42B
:1001B00080E0DF91CF91089580E090E0FACF1F9327
:1001C000CF93DF93282F30E0F901E255FF4F849160
:1001D000F901E656FF4FD491F901EA57FF4FC49158
:1001E000CC23A9F0162F81110E948D00EC2FF0E096
:1001F000EE0FFF1FEE58FF4FA591B4918FB7F89403
:10020000EC91111108C0D095DE23DC938FBFDF91F4
:10021000CF911F910895DE2BF8CFCF93DF9390E01D
:10022000FC01E656FF4F24918A579F4FFC018491B1
:100230008823D1F090E0880F991FFC01E859FF4F07
:10024000A591B491FC01EE58FF4FC591D491623055
:1002500071F49FB7F8943C91822F809583238C93FF
:10026000E8812E2B28839FBFDF91CF9108958FB710
:10027000F894EC912E2B2C938FBFF6CF3FB7F894C8
:100280008091510190915201A0915301B09154017C
:1002900026B5A89B05C02F3F19F00196A11DB11DE1
:1002A0003FBFBA2FA92F982F8827BC01CD01620F1D
:1002B000711D811D911D42E0660F771F881F991FD8
:1002C0004A95D1F708958F929F92AF92BF92CF92A5
:1002D000DF92EF92FF920E943E014B015C0182E3AC
:1002E000C82ED12CE12CF12C0E943E01681979090D
:1002F0008A099B09683E734081059105A8F321E0B6
:10030000C21AD108E108F10888EE880E83E0981E31
:10031000A11CB11CC114D104E104F10429F7FF9020
:10032000EF90DF90CF90BF90AF909F908F90089507
:10033000AF92BF92CF92DF92EF92FF920F931F93F3
:10034000CF93DF936C017B018B01040F151FEB0131
:100350005E01AE18BF08C017D10759F06991D601E8
:10036000ED91FC910190F081E02DC6010995892B5A
:1003700079F7C501DF91CF911F910F91FF90EF9019
:10038000DF90CF90BF90AF900895089590E080E007
:100390000895CF93DF93EC0160E08E810E94DF002F
:1003A00061E08E810E94DF0060E08E810E94DF00AC
:1003B0008BE891E00197F1F7DF91CF910895CF920B
:1003C000DF92EF92FF920F931F93CF93DF936C0115
:1003D0007C0187E0E80EF11CD0E0C0E0062F10E0C1
:1003E000B8010C2E02C0759567950A94E2F761700A
:1003F000F70181917F010E94DF002196C430D10571
:1004000079F7C601DF91CF911F910F91FF90EF9087
:10041000DF90CF900C94C901CF92DF92EF92FF92C0
:100420000F931F93CF93DF93EC01F62E642F8C81F3
:100430000E94DF008D818F3F19F060E00E94DF0095
:100440000F2D10E08F8584FF25C06E0187E0C80E58
:10045000D11CF12CE12CB8010E2C02C075956795CA
:100460000A94E2F76170F60181916F010E94DF004A
:10047000FFEFEF1AFF0A88E0E816F10461F7CE01FA
:10048000DF91CF911F910F91FF90EF90DF90CF9070
:100490000C94C901B80184E0759567958A95E1F7D8
:1004A000CE010E94DF016F2DCE01DF91CF911F9110
:1004B0000F91FF90EF90DF90CF900C94DF0140E020
:1004C000682F85E591E00C940C02CF93DF93823086
:1004D00029F490916401986090936401809368017D
:1004E0001092690180E480936A0180E180936B013E
:1004F00080E580936C0161E0809159010E940D01BB
:1005000080915A018F3F19F061E00E940D0161E076
:1005100080915B010E940D01C5E5D1E09E0125554A
:1005200031408091640184FD0BC084E090E021960D
:100530002817390744F461E08E810E940D01EECF47
:1005400088E090E0F4CF8BE39DE00197F1F760E065
:10055000809159010E94DF0060E080915B010E9460
:10056000DF0080915A018F3F19F060E00E94DF00A8
:100570008091640184FD39C063E085E591E00E94CB
:10058000DF01CBE4D6E4CE010197F1F763E085E526
:1005900091E00E94DF012197F1F763E085E591E0AA
:1005A0000E94DF0183E592E00197F1F762E085E5C3
:1005B00091E00E94DF018091640180620E945F02ED
:1005C00084E0809365018CE00E945F0281E00E94DC
:1005D0005F028BE39FE10197F1F782E08093660170
:1005E00086E0DF91CF910C945F0280620E945F02EF
:1005F0008BE496E40197F1F78091640180620E9498
:100600005F0283E592E00197F1F7809164018062D7
:100610000E945F02D0CF41E00E940C0281E090E096
:100620000895EF92FF920F931F93CF93DF9300D023
:1006300000D01F92CDB7DEB7182F092FF62EE72E68
:10064000E0916801E230A8F5E150F0E0EB5AFE4F8E
:10065000848980680E945F02EF92FF920F931F933C
:1006600086E191E09F938F938E010F5F1F4F1F9341
:100670000F930E94C007F80101900020E9F731971D
:10068000AF01401B510BB80185E591E00E94980134
:100690000FB6F894DEBF0FBECDBF0F900F900F9036
:1006A0000F900F90DF91CF911F910F91FF90EF90DE
:1006B0000895E1E0CACF81E00E945F028BE39FE1F1
:1006C0000197F1F7E1E0809168018111E0E0E195A7
:1006D000F0E0EB5AFE4F848980680E945F028091AF
:1006E0004201ECE3F1E0882311F0E6E3F1E044811C
:1006F00055816081718185E591E00E94980190911A
:10070000420129E130E0992311F025E030E03093F7
:10071000460120934501109244011092430181E06B
:1007200098279093420180934B0170E060E0C901EB
:100730000C9411031F920F920FB60F9211242F9356
:100740003F938F939F93AF93BF9380914D0190916F
:100750004E01A0914F01B091500130914C0123E026
:10076000230F2D3758F50196A11DB11D20934C0183
:1007700080934D0190934E01A0934F01B09350018F
:100780008091510190915201A0915301B091540177
:100790000196A11DB11D8093510190935201A09328
:1007A0005301B0935401BF91AF919F918F913F91AD
:1007B0002F910F900FBE0F901F90189526E8230FD2
:1007C0000296A11DB11DD2CFEF92FF920F931F93FE
:1007D000CF93DF93EC017B01198218821B821A826E
:1007E0001D821C82FB0101900020E9F731978F01E7
:1007F000061B170BB8016F5F7F4F90E080E00E94EF
:10080000F3060097B9F0998388831B830A832C81B0
:100810003D81232B11F4FC0110821D830C83B70151
:1008200088819981DF91CF911F910F91FF90EF9077
:100830000C94B90788819981009711F00E946A068B
:10084000198218821D821C821B821A82DF91CF912D
:100850001F910F91FF90EF900895789484B5826076
:1008600084BD84B5816084BD85B5826085BD85B554
:10087000816085BD80916E00816080936E001092D2
:10088000810080918100826080938100809181004D
:1008900081608093810080918000816080938000DE
:1008A0008091B10084608093B1008091B00081603C
:1008B0008093B00080917A00846080937A00809168
:1008C0007A00826080937A0080917A0081608093C0
:1008D0007A0080917A00806880937A001092C1003B
:1008E00062E080E00E940D0162E081E00E940D0163
:1008F00089E190E0909346018093450181E08093E7
:10090000420180934B0182E00E94650240914001C8
:100910005091410160913C0170913D0185E591E06C
:100920000E949801609143017091440180914501BA
:10093000909146018D3391052CF46D33710514F4BB
:100940000E941103C0E0D0E00BE310E081E00E94C0
:10095000B60020910201309103018217930771F0D4
:100960000E94630181E00E94B6007C01892B11F492
:100970000E945B03F0920301E092020180E00E947A
:10098000B60020910001309101018217930721F1F7
:10099000F0904B010E94630180E00E94B600009736
:1009A000B9F421E0F226F0924B012FB7F894409170
:1009B0004D0150914E0160914F01709150012FBF38
:1009C00040934701509348016093490170934A0155
:1009D000909301018093000180914B0181113EC0F1
:1009E0002FB7F89480914D0190914E01A0914F0145
:1009F000B09150012FBF4091470150914801609143
:100A0000490170914A01841B950BA60BB70B883ED8
:100A10009340A105B10510F12FB7F89480914D01D5
:100A200090914E01A0914F01B09150012FBF809342
:100A3000470190934801A0934901B0934A01209146
:100A40004501309146018091430190914401211567
:100A5000310551F4009741F40E945B03209709F49B
:100A600075CF0E94000072CF01979093440180934C
:100A7000430197FF0AC0215031093093460120936A
:100A800045011093440100934301809145019091E9
:100A900046018D33910514F7609143017091440133
:100AA0006D337105DCF60E941103D8CFE5E5F1E066
:100AB000138212828EE091E0918380838CE08483A4
:100AC0008FEF85838BE0868385E0878384E0808752
:100AD00083E0818782E082871386148615861686D6
:100AE000178681E00E94650260E271E08CE391E08C
:100AF0000E94E4036BE271E086E391E00C94E4036E
:100B00008091360190913701009711F00E946A069A
:100B100080913C0190913D01009711F00C946A0680
:100B200008952F923F924F925F926F927F928F9291
:100B30009F92AF92BF92CF92DF92EF92FF920F936C
:100B40001F93CF93DF93CDB7DEB7CA1BDB0B0FB676
:100B5000F894DEBF0FBECDBF09942A883988488833
:100B60005F846E847D848C849B84AA84B984C884C9
:100B7000DF80EE80FD800C811B81AA81B981CE0FC0
:100B8000D11D0FB6F894DEBF0FBECDBFED010895A5
:100B9000EE0FFF1F0590F491E02D09940F931F9322
:100BA000CF93DF938230910510F482E090E0E091E2
:100BB0006F01F091700130E020E0B0E0A0E03097EC
:100BC00099F42115310509F44AC0281B390B24304A
:100BD0003105D8F58A819B816115710589F1FB0189
:100BE00093838283FE0111C0408151810281138170
:100BF00048175907E0F04817590799F4109761F022
:100C000012960C93129713961C933296CF01DF9194
:100C1000CF911F910F91089500936F011093700170
:100C2000F4CF2115310551F04217530738F0A901CF
:100C3000DB019A01BD01DF01F801C1CFEF01F9CF5E
:100C40009093700180936F01CDCFFE01E20FF31FEF
:100C5000819391932250310939832883D7CF2091F2
:100C60006D0130916E01232B41F4209106013091EA
:100C7000070130936E0120936D01209104013091A2
:100C800005012115310541F42DB73EB7409108010A
:100C900050910901241B350BE0916D01F0916E011B
:100CA000E217F307A0F42E1B3F0B2817390778F043
:100CB000AC014E5F5F4F2417350748F04E0F5F1FA2
:100CC00050936E0140936D01819391939FCFF0E01B
:100CD000E0E09CCFCF93DF930097E9F0FC013297DF
:100CE00013821282A0916F01B0917001ED0130E08A
:100CF00020E01097A1F420813181820F931F209171
:100D00006D0130916E012817390709F061C0F09329
:100D10006E01E0936D01DF91CF910895EA01CE1746
:100D2000DF07E8F54A815B819E0141155105B1F766
:100D3000E901FB83EA8349915991C40FD51FEC1750
:100D4000FD0761F4808191810296840F951FE9016E
:100D500099838883828193819B838A83F0E0E0E09A
:100D600012968D919C9113970097B9F52D913C9116
:100D70001197CD010296820F931F20916D01309142
:100D80006E012817390739F6309751F51092700126
:100D900010926F01B0936E01A0936D01BCCFD3830D
:100DA000C28340815181840F951FC817D90761F410
:100DB0004E5F5F4F88819981480F591F518340834F
:100DC0008A819B81938382832115310509F0B0CFFD
:100DD000F0937001E0936F019ECFFD01DC01C0CF65
:100DE00013821282D7CFB0E0A0E0E9EFF6E00C94D6
:100DF00093058C01009751F4CB010E94CE058C0124
:100E0000C801CDB7DEB7E0E10C94AF05FC01E60FF9
:100E1000F71F9C0122503109E217F30708F49DC027
:100E2000D901CD91DC911197C617D70798F0C5303D
:100E3000D10530F3CE0104978617970708F3C61B38
:100E4000D70B2297C193D1936D937C93CF010E94CE
:100E50006A06D6CF5B01AC1ABD0A4C018C0E9D1EF2
:100E6000A0916F01B0917001512C412CF12CE12C1B
:100E7000109731F580916D0190916E01881599055B
:100E800009F05CC04616570608F058C0809104016E
:100E900090910501009741F48DB79EB740910801EC
:100EA00050910901841B950BE817F90708F055C00C
:100EB000F0936E01E0936D01F90171836083A0CF1F
:100EC0008D919C91119712966C90129713967C902D
:100ED0001397A815B90559F56C0142E0C40ED11C51
:100EE000CA14DB0420F1AC014A195B09DA0112963D
:100EF000159780F06282738251834083D9016D938C
:100F00007C93E114F10471F0D7011396FC93EE93F6
:100F1000129776CF22968C0F9D1FF90191838083C3
:100F2000F301EFCFF0937001E0936F0169CF4816A2
:100F3000590608F42C017D01D3019ACFCB010E9400
:100F4000CE057C01009749F0AE01B8010E94B007C0
:100F5000C8010E946A06870153CF10E000E050CF1D
:100F6000FB01DC0102C001900D9241505040D8F7C6
:100F70000895FB01DC0101900D920020E1F7089536
:100F8000AEE0B0E0E6ECF7E00C949F050D891E8919
:100F900086E08C831A8309838FEF9FE79E838D837E
:100FA000AE01475E5F4F6F89788DCE0101960E943A
:100FB000E3072F813885020F131FF80110822E9648
:100FC000E4E00C94BB05ABE0B0E0E9EEF7E00C9494
:100FD00091057C013B018A01FC0117821682838105
:100FE00081FFC8C1CE0101965C01F7019381F30135
:100FF00093FD859193FF81913F01882309F453C1AB
:10100000853239F493FD859193FF81913F018532BB
:1010100029F4B70190E00E94D309E7CF912C212C4D
:10102000312CFFE1F31538F08B3211F190F480325E
:1010300009F1833229F137FC3CC020ED280F2A301A
:1010400050F536FE20C08AE0989E200D1124922E85
:1010500006C08D3291F0803371F7689430F8F30157
:1010600093FD859193FF81913F018111DACF21C0DA
:10107000689431F8689432F8F2CF689433F8EFCF7F
:10108000689434F8ECCFEAE02E9E200D1124222E35
:10109000689435F8E4CF8E3229F436FC04C16894A4
:1010A00036F8DDCF8C3619F4689437F8D8CF883607
:1010B000B1F2982F9F7D95549330E0F08336A1F1E3
:1010C0008337C1F1833509F063C02801F2E04F0E88
:1010D000511CF801C080D180692D70E036FC02C03F
:1010E0006FEF7FEFC6010E94BD094C01689437F88D
:1010F00082010AC00C5F1F4FFFE3F98388248394A9
:10110000912C6501E89437F833FE2DC0522C8114E0
:10111000910471F5552009F468CFB70180E290E0A1
:101120000E94D3095A94F6CFF801808189830E5F1B
:101130001F4FE4CF2801F2E04F0E511CF801C08090
:10114000D180692D70E036FC02C06FEF7FEFC601E1
:101150000E94C8094C018201D5CFB70180E290E01E
:101160000E94D3092A942814190409F0B0F7CECFAD
:10117000F60137FC859137FE81916F01B70190E050
:101180000E94D30951105A94F1E08F1A9108BFCFF1
:10119000843619F0893609F077C0F80137FE6BC044
:1011A00060817181828193810C5F1F4FF32DFF76E7
:1011B0003F2E97FF09C090958095709561957F4F60
:1011C0008F4F9F4F689437F82AE030E0A5010E94C6
:1011D000030AC82ECA188C2C432C36FE0CC0E89487
:1011E00040F8C91440F434FE05C032FC03C0F32DAE
:1011F000FE7E4F2E892C44FE95C0FE01EC0DF11DA4
:101200008081803309F087C0242D297E422E842DD1
:101210008870582E43FC95C040FE8FC09C2C8214D1
:1012200018F42C0C922C981844FE91C0B70180E35E
:1012300090E00E94D30942FE09C088E790E041FE99
:1012400002C088E590E0B7010E94D309C91408F4F0
:101250008AC0CA94D12C9FEFC91AD90ACA0CDB1CC8
:10126000F60182916F01B70190E00E94D309AC149E
:10127000BD04B1F74FCF60817181072E000C880B40
:10128000990B0E5F1F4F92CFD32CE894D4F82AE02D
:1012900030E0853739F1232D297FD22E8F3601F1A9
:1012A00048F48835A9F0F701868197812B96E2E111
:1012B0000C94AD05803749F08837A9F7D4FE02C0F9
:1012C0006894D2F820E130E00DC06894D4F8F6CFED
:1012D00034FE03C0822F8660D82E20E132E002C0A7
:1012E00028E030E0F801D7FE0FC060817181828173
:1012F00093810C5F1F4FA5010E94030AC82ECA18D4
:101300003D2CE89437F867CF6081718190E080E0F0
:101310000E5F1F4FF0CF42FC02C0839478CF8394BE
:10132000839475CF842D867809F471CFF6CFB701F9
:1013300080E290E00E94D30983948214C0F3512C80
:1013400073CF522C5818821408F46ECFF8CF842D26
:10135000867809F47BCF8BE241FE80E247FC8DE288
:10136000B70190E071CFB70180E390E00E94D3090C
:101370009A946CCF8FEF9FEF99CFFC01059061504D
:1013800070400110D8F7809590958E0F9F1F08959B
:10139000FC016150704001900110D8F78095909544
:1013A0008E0F9F1F08950F931F93CF93DF93182FD6
:1013B000092FEB018B8181FD09C01FEF0FEF812FFA
:1013C000902FDF91CF911F910F91089582FF14C04C
:1013D0002E813F818C819D81281739073CF4E8815B
:1013E000F981CF0101969983888310838E819F8133
:1013F00001969F838E83E3CFE885F985812F099538
:10140000892BA1F3DACFFA01AA27283051F1203134
:1014100081F1E8946F936E7F6E5F7F4F8F4F9F4F88
:10142000AF4FB1E03ED0B4E03CD0670F781F891FCA
:101430009A1FA11D680F791F8A1F911DA11D6A0F98
:10144000711D811D911DA11D20D009F468943F914B
:101450002AE0269F11243019305D3193DEF6CF014A
:101460000895462F4770405D4193B3E00FD0C9F710
:10147000F6CF462F4F70405D4A3318F0495D31FD7D
:101480004052419302D0A9F7EACFB4E0A6959795D0
:10149000879577956795BA95C9F7009761057105A6
:1014A00008959B01AC010A2E0694579547953795F0
:1014B0002795BA95C9F7620F731F841F951FA01D4A
:1014C000089510E0C2E6D0E004C0FE010E94C80505
:1014D0002196C336D107C9F7F894FFCF0100010068
:1014E000000071018000000000000B039801C6019C
:1014F000C501253032643A2530326400466F637589
:10150000732054696D6500427265616B2054696D8A
:02151000650074
:107E0000112484B714BE81FFF0D085E080938100F7
:107E100082E08093C00088E18093C10086E0809377
:107E2000C20080E18093C4008EE0C9D0259A86E02C
:107E300020E33CEF91E0309385002093840096BBD3
:107E4000B09BFECF1D9AA8958150A9F7CC24DD24C4
:107E500088248394B5E0AB2EA1E19A2EF3E0BF2EE7
:107E6000A2D0813461F49FD0082FAFD0023811F036
:107E7000013811F484E001C083E08DD089C08234E0
:107E800011F484E103C0853419F485E0A6D080C0E4
:107E9000853579F488D0E82EFF2485D0082F10E0AE
:107EA000102F00270E291F29000F111F8ED06801E7
:107EB0006FC0863521F484E090D080E0DECF843638
:107EC00009F040C070D06FD0082F6DD080E0C81688
:107ED00080E7D80618F4F601B7BEE895C0E0D1E017
:107EE00062D089930C17E1F7F0E0CF16F0E7DF06D8
:107EF00018F0F601B7BEE89568D007B600FCFDCFD4
:107F0000A601A0E0B1E02C9130E011968C91119780
:107F100090E0982F8827822B932B1296FA010C0160
:107F200087BEE89511244E5F5F4FF1E0A038BF0790
:107F300051F7F601A7BEE89507B600FCFDCF97BE46
:107F4000E89526C08437B1F42ED02DD0F82E2BD052
:107F50003CD0F601EF2C8F010F5F1F4F84911BD097
:107F6000EA94F801C1F70894C11CD11CFA94CF0C13
:107F7000D11C0EC0853739F428D08EE10CD085E9AC
:107F80000AD08FE07ACF813511F488E018D01DD067
:107F900080E101D065CF982F8091C00085FFFCCF94
:107FA0009093C60008958091C00087FFFCCF809118
:107FB000C00084FD01C0A8958091C6000895E0E648
:107FC000F0E098E1908380830895EDDF803219F02E
:107FD00088E0F5DFFFCF84E1DECF1F93182FE3DFCA
:107FE0001150E9F7F2DF1F91089580E0E8DFEE27F6
:047FF000FF270994CA
:027FFE00040479
:00000001FF
